:100000000C9446000C9465000C9465000C946500FB
:100010000C9465000C9465000C9465000C946500CC
:100020000C9465000C9465000C9465000C946500BC
:100030000C9465000C94DE000C9465000C94650033
:100040000C9465000C9465000C9465000C9465009C
:100050000C9465000C9465000C9465000C9465008C
:100060000C9465000C9465000C9465000C9465007C
:100070000C9465000C9465000C9465000C9465006C
:100080000C9465000C9465000C94650011241FBE4F
:10009000CFEFD0E4DEBFCDBF11E0A0E0B1E0E8E9F2
:1000A000F6E000E00BBF02C007900D92A231B1074D
:1000B000D9F721E0A2E1B1E001C01D92A832B20758
:1000C000E1F70E94F4020C944A030C940000CF93D1
:1000D000DF9300D00F92CDB7DEB789837B836A832D
:1000E00089818A3031F48A819B81BC018DE00E9434
:1000F000670080EC90E0FC018081882F90E08072A6
:100100009927892BB1F386EC90E02981FC012083AB
:1001100080E090E00F900F900F90DF91CF910895C5
:10012000CF93DF93CDB7DEB781E890E02BE0FC0101
:10013000208388E890E02DE730E0FC0131832083C4
:100140008FE690E022E0FC01208384E890E0FC014F
:100150001182108280910E0190910F01A0911001E7
:10016000B09111018093130190931401A093150194
:10017000B09316018FE590E0FC0120818FE590E0BF
:100180002068FC0120830000DF91CF910895CF9378
:10019000DF93CDB7DEB781E890E0FC01108200006C
:1001A000DF91CF910895CF93DF93CDB7DEB781E094
:1001B000809312010000DF91CF9108951F920F925A
:1001C0000FB60F9211240BB60F922F933F934F93BC
:1001D0005F936F937F938F939F93AF93BF93EF93AF
:1001E000FF93CF93DF93CDB7DEB78091130190914A
:1001F0001401A0911501B09116010197A109B1094F
:100200008093130190931401A0931501B0931601EC
:100210008091130190911401A0911501B0911601E4
:10022000892B8A2B8B2B91F40E94D30080910E0195
:1002300090910F01A0911001B091110180931301D1
:1002400090931401A0931501B09316010000DF9163
:10025000CF91FF91EF91BF91AF919F918F917F913E
:100260006F915F914F913F912F910F900BBE0F9027
:100270000FBE0F901F901895CF93DF9300D000D042
:10028000CDB7DEB769837A838B839C8389819A811A
:10029000AB81BC8180930E0190930F01A09310015C
:1002A000B093110180910E0190910F01A091100166
:1002B000B09111018093130190931401A093150143
:1002C000B093160100000F900F900F900F90DF91E8
:1002D000CF910895CF93DF93CDB7DEB78091220100
:1002E00090912301009719F0019741F00EC081E031
:1002F00090E0909323018093220107C081E090E079
:10030000909323018093220100008091220190911B
:100310002301009709F447C0019709F045C0809177
:100320001C01813079F480911D0190911E01863964
:10033000910541F482E080931C0110921E011092FD
:100340001D0130C080911C01823079F480911D0123
:1003500090911E018639910541F484E080931C013F
:1003600010921E0110921D011DC080911C0184304D
:1003700079F480911D0190911E018639910541F417
:1003800081E080931C0110921E0110921D010AC091
:1003900080911D0190911E01019690931E01809302
:1003A0001D0102C001C000000000DF91CF9108953F
:1003B000CF93DF93CDB7DEB78091260190912701CF
:1003C000009719F0019741F00EC081E090E0909302
:1003D00027018093260107C081E090E090932701D8
:1003E00080932601000080912601909127010097BB
:1003F00099F1019709F031C080912401882379F4A3
:100400008091170190911801843F914041F488E058
:100410008093240110921801109217011CC0809142
:100420002401883071F48091170190911801843F64
:10043000914039F410922401109218011092170182
:100440000AC08091170190911801019690931801AC
:100450008093170102C001C000000000DF91CF911E
:100460000895CF93DF93CDB7DEB7809120019091AF
:1004700021018330910509F443C08430910508F0CF
:1004800055C08230910531F18330910508F04EC09E
:10049000009719F0019741F049C081E090E09093F6
:1004A00021018093200143C080912501882F90E095
:1004B00084709927892B39F082E090E09093210194
:1004C0008093200134C081E090E0909321018093DB
:1004D00020012DC080912501882F90E084709927FC
:1004E000892B39F083E090E09093210180932001E3
:1004F0001EC081E090E0909321018093200117C0FD
:1005000080912501882F90E084709927892B39F0FC
:1005100082E090E0909321018093200108C081E067
:1005200090E0909321018093200101C00000809110
:1005300020019091210183309105A9F0843091052B
:10054000A8F48230910559F08330910578F4009732
:1005500079F0019709F00AC010921F010AC080E1EA
:1005600080931F0106C010921F0103C0000001C04C
:1005700000000000DF91CF910895CF93DF93CDB7B6
:10058000DEB78091190190911A01009719F0019737
:1005900041F00EC081E090E090931A018093190120
:1005A00007C081E090E090931A0180931901000048
:1005B0008091190190911A01009789F0019709F033
:1005C0000FC090911C0180912401392F382B20916C
:1005D0001F0185E290E0232BFC01208301C0000075
:1005E0000000DF91CF910895CF93DF93CDB7DEB7B1
:1005F00081E290E0FC01108282E290E02FEFFC01AA
:10060000208384E290E02FEFFC01208385E290E0DC
:10061000FC01108262E070E080E090E00E943C010A
:100620000E94900010922301109222011092270143
:1006300010922601109221011092200110921A01AD
:100640001092190181E080931C01109224011092F4
:100650001E0110921D0110921801109217011092A4
:100660001B0110921F0180E290E0FC0180818095C7
:10067000809325010E946A010E94D8010E943102E4
:100680000E94BD020000809112018823E1F31092C4
:080690001201E9CFF894FFCF3D
:1006980000000002000000006700000000000100E8
:0206A800000050
:00000001FF
